{
  "contractName": "EarnestMoney",
  "abi": [
    {
      "constant": false,
      "inputs": [
        {
          "name": "uuid",
          "type": "string"
        }
      ],
      "name": "cancel",
      "outputs": [],
      "payable": false,
      "stateMutability": "nonpayable",
      "type": "function"
    },
    {
      "constant": false,
      "inputs": [],
      "name": "kill",
      "outputs": [],
      "payable": false,
      "stateMutability": "nonpayable",
      "type": "function"
    },
    {
      "constant": false,
      "inputs": [
        {
          "name": "uuid",
          "type": "string"
        },
        {
          "name": "_closingAgent",
          "type": "address"
        }
      ],
      "name": "release",
      "outputs": [],
      "payable": false,
      "stateMutability": "nonpayable",
      "type": "function"
    },
    {
      "constant": true,
      "inputs": [
        {
          "name": "uuid",
          "type": "string"
        }
      ],
      "name": "getDepositAmount",
      "outputs": [
        {
          "name": "",
          "type": "uint256"
        }
      ],
      "payable": false,
      "stateMutability": "view",
      "type": "function"
    },
    {
      "constant": true,
      "inputs": [],
      "name": "getContractBalance",
      "outputs": [
        {
          "name": "",
          "type": "uint256"
        }
      ],
      "payable": false,
      "stateMutability": "view",
      "type": "function"
    },
    {
      "constant": true,
      "inputs": [
        {
          "name": "account",
          "type": "address"
        }
      ],
      "name": "getAccountBalance",
      "outputs": [
        {
          "name": "",
          "type": "uint256"
        }
      ],
      "payable": false,
      "stateMutability": "view",
      "type": "function"
    },
    {
      "constant": false,
      "inputs": [
        {
          "name": "uuid",
          "type": "string"
        }
      ],
      "name": "deposit",
      "outputs": [],
      "payable": true,
      "stateMutability": "payable",
      "type": "function"
    },
    {
      "constant": true,
      "inputs": [
        {
          "name": "uuid",
          "type": "string"
        }
      ],
      "name": "realtorStatus",
      "outputs": [
        {
          "name": "",
          "type": "string"
        },
        {
          "name": "",
          "type": "address"
        },
        {
          "name": "",
          "type": "address"
        },
        {
          "name": "",
          "type": "address"
        },
        {
          "name": "",
          "type": "uint8"
        },
        {
          "name": "",
          "type": "uint256"
        }
      ],
      "payable": false,
      "stateMutability": "view",
      "type": "function"
    },
    {
      "constant": false,
      "inputs": [
        {
          "name": "uuid",
          "type": "string"
        }
      ],
      "name": "register",
      "outputs": [],
      "payable": true,
      "stateMutability": "payable",
      "type": "function"
    },
    {
      "constant": true,
      "inputs": [
        {
          "name": "uuid",
          "type": "string"
        }
      ],
      "name": "buyerStatus",
      "outputs": [
        {
          "name": "",
          "type": "string"
        },
        {
          "name": "",
          "type": "address"
        },
        {
          "name": "",
          "type": "address"
        },
        {
          "name": "",
          "type": "address"
        },
        {
          "name": "",
          "type": "uint8"
        },
        {
          "name": "",
          "type": "uint256"
        }
      ],
      "payable": false,
      "stateMutability": "view",
      "type": "function"
    },
    {
      "constant": false,
      "inputs": [
        {
          "name": "uuid",
          "type": "string"
        }
      ],
      "name": "refund",
      "outputs": [],
      "payable": false,
      "stateMutability": "nonpayable",
      "type": "function"
    },
    {
      "inputs": [
        {
          "name": "_owner",
          "type": "address"
        }
      ],
      "payable": false,
      "stateMutability": "nonpayable",
      "type": "constructor"
    },
    {
      "anonymous": false,
      "inputs": [
        {
          "indexed": false,
          "name": "_uuid",
          "type": "string"
        },
        {
          "indexed": false,
          "name": "_realtor",
          "type": "address"
        }
      ],
      "name": "Registered",
      "type": "event"
    },
    {
      "anonymous": false,
      "inputs": [
        {
          "indexed": false,
          "name": "_uuid",
          "type": "string"
        },
        {
          "indexed": false,
          "name": "_buyer",
          "type": "address"
        },
        {
          "indexed": false,
          "name": "_realtor",
          "type": "address"
        },
        {
          "indexed": false,
          "name": "_amount",
          "type": "uint256"
        }
      ],
      "name": "Deposited",
      "type": "event"
    },
    {
      "anonymous": false,
      "inputs": [
        {
          "indexed": false,
          "name": "_uuid",
          "type": "string"
        },
        {
          "indexed": false,
          "name": "_buyer",
          "type": "address"
        },
        {
          "indexed": false,
          "name": "_realtor",
          "type": "address"
        },
        {
          "indexed": false,
          "name": "_closingAgent",
          "type": "address"
        },
        {
          "indexed": false,
          "name": "_amount",
          "type": "uint256"
        }
      ],
      "name": "Released",
      "type": "event"
    },
    {
      "anonymous": false,
      "inputs": [
        {
          "indexed": false,
          "name": "_uuid",
          "type": "string"
        },
        {
          "indexed": false,
          "name": "_buyer",
          "type": "address"
        },
        {
          "indexed": false,
          "name": "_realtor",
          "type": "address"
        },
        {
          "indexed": false,
          "name": "_amount",
          "type": "uint256"
        }
      ],
      "name": "Refunded",
      "type": "event"
    },
    {
      "anonymous": false,
      "inputs": [
        {
          "indexed": false,
          "name": "_uuid",
          "type": "string"
        },
        {
          "indexed": false,
          "name": "_realtor",
          "type": "address"
        }
      ],
      "name": "Cancelled",
      "type": "event"
    }
  ],
  "bytecode": "0x6060604052341561000f57600080fd5b604051602080611e9a83398101604052808051906020019091905050806000806101000a81548173ffffffffffffffffffffffffffffffffffffffff021916908373ffffffffffffffffffffffffffffffffffffffff16021790555050611e1f8061007b6000396000f3006060604052600436106100af576000357c0100000000000000000000000000000000000000000000000000000000900463ffffffff1680630b4f3f3d146100b457806341c0e1b514610111578063470495b21461012657806356fed754146101a25780636f9fb98a1461021357806393423e9c1461023c578063a26e118614610289578063da4dc135146102db578063f2c298be14610466578063f33d7e4b146104b8578063fe5f2e8814610643575b600080fd5b34156100bf57600080fd5b61010f600480803590602001908201803590602001908080601f016020809104026020016040519081016040528093929190818152602001838380828437820191505050505050919050506106a0565b005b341561011c57600080fd5b6101246109c2565b005b341561013157600080fd5b6101a0600480803590602001908201803590602001908080601f0160208091040260200160405190810160405280939291908181526020018383808284378201915050505050509190803573ffffffffffffffffffffffffffffffffffffffff16906020019091905050610a57565b005b34156101ad57600080fd5b6101fd600480803590602001908201803590602001908080601f01602080910402602001604051908101604052809392919081815260200183838082843782019150505050505091905050610d98565b6040518082815260200191505060405180910390f35b341561021e57600080fd5b610226610e96565b6040518082815260200191505060405180910390f35b341561024757600080fd5b610273600480803573ffffffffffffffffffffffffffffffffffffffff16906020019091905050610f10565b6040518082815260200191505060405180910390f35b6102d9600480803590602001908201803590602001908080601f01602080910402602001604051908101604052809392919081815260200183838082843782019150505050505091905050610f8c565b005b34156102e657600080fd5b610336600480803590602001908201803590602001908080601f016020809104026020016040519081016040528093929190818152602001838380828437820191505050505050919050506111ff565b60405180806020018773ffffffffffffffffffffffffffffffffffffffff1673ffffffffffffffffffffffffffffffffffffffff1681526020018673ffffffffffffffffffffffffffffffffffffffff1673ffffffffffffffffffffffffffffffffffffffff1681526020018573ffffffffffffffffffffffffffffffffffffffff1673ffffffffffffffffffffffffffffffffffffffff1681526020018460058111156103e057fe5b60ff168152602001838152602001828103825288818151815260200191508051906020019080838360005b8381101561042657808201518184015260208101905061040b565b50505050905090810190601f1680156104535780820380516001836020036101000a031916815260200191505b5097505050505050505060405180910390f35b6104b6600480803590602001908201803590602001908080601f016020809104026020016040519081016040528093929190818152602001838380828437820191505050505050919050506114ad565b005b34156104c357600080fd5b610513600480803590602001908201803590602001908080601f016020809104026020016040519081016040528093929190818152602001838380828437820191505050505050919050506117eb565b60405180806020018773ffffffffffffffffffffffffffffffffffffffff1673ffffffffffffffffffffffffffffffffffffffff1681526020018673ffffffffffffffffffffffffffffffffffffffff1673ffffffffffffffffffffffffffffffffffffffff1681526020018573ffffffffffffffffffffffffffffffffffffffff1673ffffffffffffffffffffffffffffffffffffffff1681526020018460058111156105bd57fe5b60ff168152602001838152602001828103825288818151815260200191508051906020019080838360005b838110156106035780820151818401526020810190506105e8565b50505050905090810190601f1680156106305780820380516001836020036101000a031916815260200191505b5097505050505050505060405180910390f35b341561064e57600080fd5b61069e600480803590602001908201803590602001908080601f01602080910402602001604051908101604052809392919081815260200183838082843782019150505050505091905050611a99565b005b6000806000339250836040518082805190602001908083835b6020831015156106de57805182526020820191506020810190506020830392506106b9565b6001836020036101000a0380198251168184511680821785525050505050509050019150506040518091039020915060016000836000191660001916815260200190815260200160002090508273ffffffffffffffffffffffffffffffffffffffff168160010160009054906101000a900473ffffffffffffffffffffffffffffffffffffffff1673ffffffffffffffffffffffffffffffffffffffff1614151561078857600080fd5b6003600581111561079557fe5b8160000160009054906101000a900460ff1660058111156107b257fe5b14806107e55750600460058111156107c657fe5b8160000160009054906101000a900460ff1660058111156107e357fe5b145b15156107f057600080fd5b60058160000160006101000a81548160ff0219169083600581111561081157fe5b021790555060008160000160016101000a81548173ffffffffffffffffffffffffffffffffffffffff021916908373ffffffffffffffffffffffffffffffffffffffff16021790555060008160010160006101000a81548173ffffffffffffffffffffffffffffffffffffffff021916908373ffffffffffffffffffffffffffffffffffffffff16021790555060008160020160006101000a81548173ffffffffffffffffffffffffffffffffffffffff021916908373ffffffffffffffffffffffffffffffffffffffff160217905550600081600301819055507fd5ef821d514b781472d5e9526a6d9447cc4f14776aa4f0720d9470628d778dfa848460405180806020018373ffffffffffffffffffffffffffffffffffffffff1673ffffffffffffffffffffffffffffffffffffffff168152602001828103825284818151815260200191508051906020019080838360005b83811015610981578082015181840152602081019050610966565b50505050905090810190601f1680156109ae5780820380516001836020036101000a031916815260200191505b50935050505060405180910390a150505050565b6000809054906101000a900473ffffffffffffffffffffffffffffffffffffffff1673ffffffffffffffffffffffffffffffffffffffff163373ffffffffffffffffffffffffffffffffffffffff16141515610a1d57600080fd5b6000809054906101000a900473ffffffffffffffffffffffffffffffffffffffff1673ffffffffffffffffffffffffffffffffffffffff16ff5b6000806000806000339450866040518082805190602001908083835b602083101515610a985780518252602082019150602081019050602083039250610a73565b6001836020036101000a0380198251168184511680821785525050505050509050019150506040518091039020935060016000856000191660001916815260200190815260200160002092508473ffffffffffffffffffffffffffffffffffffffff168360010160009054906101000a900473ffffffffffffffffffffffffffffffffffffffff1673ffffffffffffffffffffffffffffffffffffffff16141515610b4257600080fd5b60026005811115610b4f57fe5b8360000160009054906101000a900460ff166005811115610b6c57fe5b141515610b7857600080fd5b8260000160019054906101000a900473ffffffffffffffffffffffffffffffffffffffff16915060038360000160006101000a81548160ff02191690836005811115610bc057fe5b0217905550858360020160006101000a81548173ffffffffffffffffffffffffffffffffffffffff021916908373ffffffffffffffffffffffffffffffffffffffff160217905550826003015490508573ffffffffffffffffffffffffffffffffffffffff166108fc829081150290604051600060405180830381858888f193505050501515610c4f57600080fd5b7fec85ddbdf1488e1d91efd9b5d411fce4ab2cc2ee72772ab9a1950f881a3f5095878387898560405180806020018673ffffffffffffffffffffffffffffffffffffffff1673ffffffffffffffffffffffffffffffffffffffff1681526020018573ffffffffffffffffffffffffffffffffffffffff1673ffffffffffffffffffffffffffffffffffffffff1681526020018473ffffffffffffffffffffffffffffffffffffffff1673ffffffffffffffffffffffffffffffffffffffff168152602001838152602001828103825287818151815260200191508051906020019080838360005b83811015610d51578082015181840152602081019050610d36565b50505050905090810190601f168015610d7e5780820380516001836020036101000a031916815260200191505b50965050505050505060405180910390a150505050505050565b6000806000806000339350856040518082805190602001908083835b602083101515610dd95780518252602082019150602081019050602083039250610db4565b6001836020036101000a0380198251168184511680821785525050505050509050019150506040518091039020925060016000846000191660001916815260200190815260200160002091508373ffffffffffffffffffffffffffffffffffffffff168260010160009054906101000a900473ffffffffffffffffffffffffffffffffffffffff1673ffffffffffffffffffffffffffffffffffffffff16141515610e8357600080fd5b8160030154905080945050505050919050565b60008060009054906101000a900473ffffffffffffffffffffffffffffffffffffffff1673ffffffffffffffffffffffffffffffffffffffff163373ffffffffffffffffffffffffffffffffffffffff16141515610ef357600080fd5b3073ffffffffffffffffffffffffffffffffffffffff1631905090565b60008060009054906101000a900473ffffffffffffffffffffffffffffffffffffffff1673ffffffffffffffffffffffffffffffffffffffff163373ffffffffffffffffffffffffffffffffffffffff16141515610f6d57600080fd5b8173ffffffffffffffffffffffffffffffffffffffff16319050919050565b6000806000806000339450349350856040518082805190602001908083835b602083101515610fd05780518252602082019150602081019050602083039250610fab565b6001836020036101000a0380198251168184511680821785525050505050509050019150506040518091039020925060016000846000191660001916815260200190815260200160002091506001600581111561102957fe5b8260000160009054906101000a900460ff16600581111561104657fe5b14151561105257600080fd5b8160010160009054906101000a900473ffffffffffffffffffffffffffffffffffffffff16905060028260000160006101000a81548160ff0219169083600581111561109a57fe5b0217905550848260000160016101000a81548173ffffffffffffffffffffffffffffffffffffffff021916908373ffffffffffffffffffffffffffffffffffffffff1602179055508382600301819055507fa348b54485f1d38cacb4b427a2dbc5bf2067cb3ba1024d6a4213a018939984848686838760405180806020018573ffffffffffffffffffffffffffffffffffffffff1673ffffffffffffffffffffffffffffffffffffffff1681526020018473ffffffffffffffffffffffffffffffffffffffff1673ffffffffffffffffffffffffffffffffffffffff168152602001838152602001828103825286818151815260200191508051906020019080838360005b838110156111ba57808201518184015260208101905061119f565b50505050905090810190601f1680156111e75780820380516001836020036101000a031916815260200191505b509550505050505060405180910390a1505050505050565b611207611d62565b600080600080600080600061121a611d76565b60008060008060003397508e6040518082805190602001908083835b60208310151561125b5780518252602082019150602081019050602083039250611236565b6001836020036101000a0380198251168184511680821785525050505050509050019150506040518091039020965060016000886000191660001916815260200190815260200160002060a060405190810160405290816000820160009054906101000a900460ff1660058111156112cf57fe5b60058111156112da57fe5b81526020016000820160019054906101000a900473ffffffffffffffffffffffffffffffffffffffff1673ffffffffffffffffffffffffffffffffffffffff1673ffffffffffffffffffffffffffffffffffffffff1681526020016001820160009054906101000a900473ffffffffffffffffffffffffffffffffffffffff1673ffffffffffffffffffffffffffffffffffffffff1673ffffffffffffffffffffffffffffffffffffffff1681526020016002820160009054906101000a900473ffffffffffffffffffffffffffffffffffffffff1673ffffffffffffffffffffffffffffffffffffffff1673ffffffffffffffffffffffffffffffffffffffff168152602001600382015481525050955085604001519450856000015193506000600581111561140757fe5b84600581111561141357fe5b1480611434575060058081111561142657fe5b84600581111561143257fe5b145b8061146a57508773ffffffffffffffffffffffffffffffffffffffff168573ffffffffffffffffffffffffffffffffffffffff16145b151561147557600080fd5b8560200151925085606001519150856080015190508e83868487859d509d509d509d509d509d50505050505050505091939550919395565b600080600080339350846040518082805190602001908083835b6020831015156114ec57805182526020820191506020810190506020830392506114c7565b6001836020036101000a0380198251168184511680821785525050505050509050019150506040518091039020925060016000846000191660001916815260200190815260200160002091508160000160009054906101000a900460ff1690506002600581111561155957fe5b81600581111561156557fe5b1415801561158a57506003600581111561157b57fe5b81600581111561158757fe5b14155b80156115ad57506004600581111561159e57fe5b8160058111156115aa57fe5b14155b15156115b857600080fd5b60018260000160006101000a81548160ff021916908360058111156115d957fe5b0217905550838260010160006101000a81548173ffffffffffffffffffffffffffffffffffffffff021916908373ffffffffffffffffffffffffffffffffffffffff1602179055506000826003018190555060008260000160016101000a81548173ffffffffffffffffffffffffffffffffffffffff021916908373ffffffffffffffffffffffffffffffffffffffff16021790555060008260020160006101000a81548173ffffffffffffffffffffffffffffffffffffffff021916908373ffffffffffffffffffffffffffffffffffffffff1602179055506000809054906101000a900473ffffffffffffffffffffffffffffffffffffffff1673ffffffffffffffffffffffffffffffffffffffff166108fc349081150290604051600060405180830381858888f19350505050151561171457600080fd5b7f50f74ca45caac8020b8d891bd13ea5a2d79564986ee6a839f0d914896388322d858560405180806020018373ffffffffffffffffffffffffffffffffffffffff1673ffffffffffffffffffffffffffffffffffffffff168152602001828103825284818151815260200191508051906020019080838360005b838110156117a957808201518184015260208101905061178e565b50505050905090810190601f1680156117d65780820380516001836020036101000a031916815260200191505b50935050505060405180910390a15050505050565b6117f3611d62565b6000806000806000806000611806611d76565b60008060008060003397508e6040518082805190602001908083835b6020831015156118475780518252602082019150602081019050602083039250611822565b6001836020036101000a0380198251168184511680821785525050505050509050019150506040518091039020965060016000886000191660001916815260200190815260200160002060a060405190810160405290816000820160009054906101000a900460ff1660058111156118bb57fe5b60058111156118c657fe5b81526020016000820160019054906101000a900473ffffffffffffffffffffffffffffffffffffffff1673ffffffffffffffffffffffffffffffffffffffff1673ffffffffffffffffffffffffffffffffffffffff1681526020016001820160009054906101000a900473ffffffffffffffffffffffffffffffffffffffff1673ffffffffffffffffffffffffffffffffffffffff1673ffffffffffffffffffffffffffffffffffffffff1681526020016002820160009054906101000a900473ffffffffffffffffffffffffffffffffffffffff1673ffffffffffffffffffffffffffffffffffffffff1673ffffffffffffffffffffffffffffffffffffffff16815260200160038201548152505095508560200151945085600001519350600060058111156119f357fe5b8460058111156119ff57fe5b1480611a205750600580811115611a1257fe5b846005811115611a1e57fe5b145b80611a5657508773ffffffffffffffffffffffffffffffffffffffff168573ffffffffffffffffffffffffffffffffffffffff16145b1515611a6157600080fd5b8560400151925085606001519150856080015190508e85848487859d509d509d509d509d509d50505050505050505091939550919395565b6000806000806000339450856040518082805190602001908083835b602083101515611ada5780518252602082019150602081019050602083039250611ab5565b6001836020036101000a0380198251168184511680821785525050505050509050019150506040518091039020935060016000856000191660001916815260200190815260200160002092508473ffffffffffffffffffffffffffffffffffffffff168360010160009054906101000a900473ffffffffffffffffffffffffffffffffffffffff1673ffffffffffffffffffffffffffffffffffffffff16141515611b8457600080fd5b60026005811115611b9157fe5b8360000160009054906101000a900460ff166005811115611bae57fe5b141515611bba57600080fd5b8260000160019054906101000a900473ffffffffffffffffffffffffffffffffffffffff16915060048360000160006101000a81548160ff02191690836005811115611c0257fe5b0217905550826003015490508173ffffffffffffffffffffffffffffffffffffffff166108fc829081150290604051600060405180830381858888f193505050501515611c4e57600080fd5b7fdc718f88216244ce6f5aa6e9d6645d1e1363a9abf3fa7f56d210ff26dd6a88b88683878460405180806020018573ffffffffffffffffffffffffffffffffffffffff1673ffffffffffffffffffffffffffffffffffffffff1681526020018473ffffffffffffffffffffffffffffffffffffffff1673ffffffffffffffffffffffffffffffffffffffff168152602001838152602001828103825286818151815260200191508051906020019080838360005b83811015611d1d578082015181840152602081019050611d02565b50505050905090810190601f168015611d4a5780820380516001836020036101000a031916815260200191505b509550505050505060405180910390a1505050505050565b602060405190810160405280600081525090565b60a06040519081016040528060006005811115611d8f57fe5b8152602001600073ffffffffffffffffffffffffffffffffffffffff168152602001600073ffffffffffffffffffffffffffffffffffffffff168152602001600073ffffffffffffffffffffffffffffffffffffffff1681526020016000815250905600a165627a7a72305820a3e76e753279469038f4ba7ad07b87c7bde4bb39efc2d656649812eb0fd111cb0029",
  "source": "pragma solidity ^0.4.18;\r\n\r\n/// @title This contract manages `good-faith` earnest money contracts used in real estate transactions.\r\n/// When a buyer enters into a real estate contract, the realtor will typically request that the buyer \r\n/// deposit a sum of money as good faith (typically 1% of the sales price) to help convince the seller \r\n/// that the buyer is serious about the purchase. Currently, this means that:\r\n/// 1) The buyer writes a check to the realtor\r\n/// 2) The realtor holds the check until the seller agrees to the terms of the real estate contract.\r\n/// 3) The realtor deposits the check into a bank account.\r\n/// 4) The realtor writes a check to the closing agent (typically an attorney) and brings it to closing.\r\n/// 5) The closing agent deposits the check into a bank account.\r\n/// If, for some reason, the real estate contract becomes invalid, the realtor needs to refund the \r\n/// money to the buyer either by returning the buyer's check or by writing a new check to the buyer.\r\n/// This manual movement of writing and depositing checks can be easily be automated using a smart contract.\r\ncontract EarnestMoney{\r\n\r\n    enum Stages {\r\n        Empty,\r\n        Registered,\r\n        Funded,\r\n        Released,\r\n        Refunded,\r\n        Cancelled\r\n    }\r\n\r\n    struct Agreement {\r\n        Stages stage;\r\n        address buyer;\r\n        address realtor;\r\n        address closingAgent;\r\n        uint256 amount;\r\n    }\r\n\r\n    address internal owner;\r\n    mapping(bytes32 => Agreement) internal agreements;\r\n\r\n    event Registered(string _uuid, address _realtor);\r\n    event Deposited(string _uuid, address _buyer, address _realtor, uint256 _amount);\r\n    event Released(string _uuid, address _buyer, address _realtor, address _closingAgent, uint256 _amount);\r\n    event Refunded(string _uuid, address _buyer, address _realtor, uint256 _amount);\r\n    event Cancelled(string _uuid, address _realtor);\r\n \r\n    modifier onlyOwner() { require(msg.sender == owner); _; }\r\n\r\n    /// @notice Creates instance of EarnestMoney smart contract on the blockchain.\r\n    /// @param _owner Address of the contract owner\r\n    function EarnestMoney(address _owner) public {\r\n            owner = _owner;\r\n    }\r\n\r\n    /// @notice Register an agreement. This action identifies the realtor\r\n    /// who will manage the earnest money for a specific real estate contract.\r\n    /// The realtor is charged an initial fee as part of the registration   \r\n    /// process to cover the owner's expenses.\r\n    /// This function fires the `Registered` event upon successful completion. \r\n    /// Agreement state is changed to `Registered` allowing funds to be deposited.\r\n    /// This function will terminate if an attempt is made to register an \r\n    /// existing agreement whose state is either `Funded`, `Released`, or `Refunded`.\r\n    /// @param uuid Unique string that identifies this earnest money agreement to the outside world\r\n    /// @dev uuid format is string `123e4567-e89b-12d3-a456-556642440000`\r\n    function register(string uuid) public payable {\r\n        address _realtor = msg.sender;\r\n        bytes32 agreementKey = keccak256(uuid);\r\n        Agreement storage agreement = agreements[agreementKey];\r\n        Stages _stage = agreement.stage;\r\n        require(_stage != Stages.Funded && _stage != Stages.Released && _stage != Stages.Refunded);\r\n        agreement.stage = Stages.Registered;\r\n        agreement.realtor = _realtor;\r\n        agreement.amount = 0;\r\n        agreement.buyer = 0x00;\r\n        agreement.closingAgent = 0x00;\r\n        owner.transfer(msg.value);\r\n        Registered(uuid, _realtor);\r\n    }\r\n\r\n    /// @notice Deposit the earnest money sent by the buyer with this transaction   \r\n    /// into the balance of the agreement. Actual funds remain in the contract balance until  \r\n    /// the realtor either releases them to the closing agent or refunds them to the buyer.\r\n    /// The agreement state must be `Registered` in order to deposit.\r\n    /// This function fires the `Deposited` event upon successful completion. \r\n    /// Agreement state is changed to `Funded` restricting further activity to either release or refund.\r\n    /// @param uuid Unique string that identifies this earnest money agreement to the outside world\r\n    /// @dev uuid format is string `123e4567-e89b-12d3-a456-556642440000`\r\n    function deposit(string uuid) public payable {\r\n        address _buyer = msg.sender;\r\n        uint256 _amount = msg.value;\r\n        bytes32 agreementKey = keccak256(uuid);\r\n        Agreement storage agreement = agreements[agreementKey];\r\n        require(agreement.stage == Stages.Registered);\r\n        address _realtor = agreement.realtor;\r\n        agreement.stage = Stages.Funded;\r\n        agreement.buyer = _buyer;\r\n        agreement.amount = _amount;\r\n        Deposited(uuid, _buyer, _realtor, _amount);\r\n    }\r\n\r\n    /// @notice Query the deposit amount held by the agreement. This function can  \r\n    /// only be executed by the Realtor. \r\n    /// @param uuid Unique string that identifies this earnest money agreement to the outside world\r\n    /// @dev uuid format is string `123e4567-e89b-12d3-a456-556642440000`\r\n    /// @return The amount of earnest money deposited\r\n    function getDepositAmount(string uuid) public view returns (uint256) {\r\n        address _realtor = msg.sender;\r\n        bytes32 agreementKey = keccak256(uuid);\r\n        Agreement storage agreement = agreements[agreementKey];\r\n        require(agreement.realtor == _realtor);\r\n        uint256 _amount = agreement.amount;\r\n        return _amount;\r\n    }\r\n\r\n    /// @notice Release the buyer's earnest money to the closing agent. This action transfers \r\n    /// funds held in the contract balance to the closing agent. The agreement state must be \r\n    /// `Funded` in order to release. This function can only be executed by the Realtor and\r\n    ///  fires the `Released` event upon successful completion. Agreement state is changed to \r\n    /// `Released` effectively prohibiting any future unauthorized fund transfers.\r\n    /// @param uuid Unique string that identifies this earnest money agreement to the outside world\r\n    /// @dev uuid format is string `123e4567-e89b-12d3-a456-556642440000`\r\n    /// @param _closingAgent Address of the closing agent\r\n    function release(string uuid, address _closingAgent) public {\r\n        address _realtor = msg.sender;\r\n        bytes32 agreementKey = keccak256(uuid);\r\n        Agreement storage agreement = agreements[agreementKey];\r\n        require(agreement.realtor == _realtor);\r\n        require(agreement.stage == Stages.Funded);\r\n        address _buyer = agreement.buyer;\r\n        agreement.stage = Stages.Released;\r\n        agreement.closingAgent = _closingAgent;\r\n        uint256 _amount = agreement.amount;\r\n        _closingAgent.transfer(_amount);\r\n        Released(uuid, _buyer, _realtor, _closingAgent, _amount);\r\n    }\r\n\r\n    /// @notice Refund the buyer's earnest money. This action \r\n    /// transfers funds held in the contract balance to the buyer. \r\n    /// The agreement state must be `Funded` in order to refund. \r\n    /// This function can only be executed by the Realtor and fires the `Refunded`  \r\n    /// event upon successful completion. Agreement state is changed to `Finished`\r\n    /// effectively prohibiting any future unauthorized fund transfers.\r\n    /// @param uuid Unique string that identifies this earnest money agreement to the outside world\r\n    /// @dev uuid format is string `123e4567-e89b-12d3-a456-556642440000`\r\n    function refund(string uuid) public {\r\n        address _realtor = msg.sender;\r\n        bytes32 agreementKey = keccak256(uuid);\r\n        Agreement storage agreement = agreements[agreementKey];\r\n        require(agreement.realtor == _realtor);\r\n        require(agreement.stage == Stages.Funded);\r\n        address _buyer = agreement.buyer;\r\n        agreement.stage = Stages.Refunded;\r\n        uint256 _amount = agreement.amount;\r\n         _buyer.transfer(_amount);\r\n        Refunded(uuid, _buyer, _realtor, _amount);\r\n    }\r\n\r\n    /// @notice Cancel an agreement. This function can only be executed by the Realtor\r\n    /// and fires the `Cancelled` event upon successful completion..\r\n    /// The agreement state must be either `Released` or `Refunded` in order to cancel.\r\n    /// Agreement state is changed to `Cancelled`.\r\n    /// The agreement is reset to default values and could possibly (although unlikely) be reused.\r\n    /// @param uuid Unique string that identifies this earnest money agreement to the outside world\r\n    /// @dev uuid format is string `123e4567-e89b-12d3-a456-556642440000`\r\n    function cancel(string uuid) public {\r\n        address _realtor = msg.sender;\r\n        bytes32 agreementKey = keccak256(uuid);\r\n        Agreement storage agreement = agreements[agreementKey];\r\n        require(agreement.realtor == _realtor);\r\n        require(agreement.stage == Stages.Released || agreement.stage == Stages.Refunded);\r\n        agreement.stage = Stages.Cancelled;\r\n        agreement.buyer = 0x00;\r\n        agreement.realtor = 0x00;\r\n        agreement.closingAgent = 0x00;\r\n        agreement.amount = 0;\r\n        Cancelled(uuid, _realtor);\r\n    }\r\n\r\n    /// @notice Kill the EarnestMoney contract instance which removes it from the blockchain. \r\n    /// This function can only be executed by the owner.\r\n    function kill() public onlyOwner {\r\n        selfdestruct(owner);\r\n    }\r\n\r\n    ///  @notice Query an account balance. \r\n    /// This function can only be executed by the owner.\r\n    /// @param account Address of account\r\n    /// @return The amount of ether in the account balance\r\n    function getAccountBalance(address account) public view onlyOwner returns (uint256) {\r\n        return account.balance;\r\n    }\r\n\r\n    /// @notice Query the contract balance. \r\n    /// This function can only be executed by the owner.\r\n    /// @return The amount of ether in the contract balance\r\n    function getContractBalance() public view onlyOwner returns (uint256) {\r\n        return this.balance;\r\n    }\r\n\r\n    /// @notice Query the status of an agreement. This function can only be executed by\r\n    /// a Realtor and fires the `RealtorStatus` event upon successful completion. \r\n    /// The realtor must also be the one who registered the agreement identified by uuid.\r\n    /// Uninitialized and cancelled agreements may also be returned.\r\n    /// @param uuid Unique string that identifies this earnest money agreement to the outside world\r\n    /// @dev uuid format is string `123e4567-e89b-12d3-a456-556642440000`\r\n    /// @return Status of the agreement which includes uuid, buyer address, realtor address, closing agent address, stage, and deposit amount\r\n    function realtorStatus(string uuid) public view \r\n        returns (string, address, address, address, Stages, uint256) { \r\n        address _realtor = msg.sender;\r\n        bytes32 agreementKey = keccak256(uuid);\r\n        Agreement memory agreement = agreements[agreementKey];\r\n        address _agreementRealtor = agreement.realtor;\r\n        Stages _stage = agreement.stage;\r\n        require(_stage == Stages.Empty || _stage == Stages.Cancelled || _agreementRealtor == _realtor);\r\n        address _buyer = agreement.buyer;\r\n        address _closingAgent = agreement.closingAgent;\r\n        uint256 _amount = agreement.amount;\r\n        return (uuid, _buyer, _agreementRealtor, _closingAgent, _stage, _amount);\r\n    }\r\n\r\n    /// @notice Query the status of an agreement. This function can only be executed by\r\n    /// a Buyer and fires the `BuyerStatus` event upon successful completion. \r\n    /// The buyer must also be the one who deposited funds for the agreement identified by uuid.\r\n    /// Uninitialized and cancelled agreements may also be returned.\r\n    /// @param uuid Unique string that identifies this earnest money agreement to the outside world\r\n    /// @dev uuid format is string `123e4567-e89b-12d3-a456-556642440000`\r\n    /// @return Status of the agreement which includes uuid, buyer address, realtor address, closing agent address, stage, and deposit amount\r\n    function buyerStatus(string uuid) public view \r\n        returns (string, address, address, address, Stages, uint256) {\r\n        address _buyer = msg.sender;\r\n        bytes32 agreementKey = keccak256(uuid);\r\n        Agreement memory agreement = agreements[agreementKey];\r\n        address _agreementBuyer = agreement.buyer;\r\n        Stages _stage = agreement.stage;\r\n        require(_stage == Stages.Empty || _stage == Stages.Cancelled || _agreementBuyer == _buyer);\r\n        address _realtor = agreement.realtor;\r\n        address _closingAgent = agreement.closingAgent;\r\n        uint256 _amount = agreement.amount;\r\n        return (uuid, _agreementBuyer, _realtor, _closingAgent, _stage, _amount);\r\n    }\r\n}",
  "sourcePath": "C:\\Users\\Jimmy\\ws_2018_interview\\sourceCode\\EarnestMoney\\contracts\\EarnestMoney.sol",
  "compiler": {
    "name": "solc",
    "version": "0.4.18+commit.9cf6e910.Emscripten.clang"
  },
  "schemaVersion": "1.0.1",
  "updatedAt": "2018-01-23T14:19:31.075Z"
}